7100000000000000PEDRO04               P0000000000000000000000000000000000000000000TOYASRL   CUOTA44                                                TOYASRL         
7110072016000000PEDRO02               P0140085401502205063798000004000030713701404TOYASRL   CUOTA02                                                TOYASRL         
7110072016000000PEDRO01               P0140085401502205063798000005000030713701404TOYASRL   CUOTA01                                                TOYASRL         
