710104201600000000000005              P0140301303666250463519000000590030680136803TOYA      CHR001909000001                                        TRABAJADORTOYA  
000000000000000022                    P00000000000000000000000000000000044        66                                                     2               
00000000000000002                     P0000000000000000000000000000000004                                                                8               
000000000000000022                    P00000000000000000000000000000000044                                                               44              
7422000000440000123412                P4200000086000000000000008800000001234      12344321                                               12344321        
0100000002000004fwdfw00               P000000020000000000000400000000080fwef22    4124214ds                                              1123213bj       
